:020000040800F2
:10000000081700207D02000885020008870200080A
:10001000890200088B0200088D0200080000000021
:100020000000000000000000000000008F02000837
:10003000910200080000000093020008791F0008E8
:10004000970200089702000897020008970200082C
:10005000970200089702000897020008970200081C
:10006000970200089702000897020008970200080C
:1000700097020008970200089702000897020008FC
:1000800097020008970200089702000897020008EC
:1000900097020008970200089702000897020008DC
:1000A00097020008970200089702000897020008CC
:1000B00097020008970200089702000897020008BC
:1000C00097020008970200089702000897020008AC
:1000D00097020008392200089702000875220008DC
:1000E00097020008970200089702000800F002F843
:1000F00000F0B4F80AA090E8000C82448344AAF10E
:100100000107DA4501D100F0A9F8AFF2090EBAE80B
:100110000F0013F0010F18BFFB1A43F0010318473B
:10012000F82C0000182D000010F8013B0A4413F0D1
:10013000030408BF10F8014B1D1108BF10F8015B44
:10014000641E05D010F8016B641E01F8016BF9D133
:10015000002D15D010F8014B03F00C030C2BA1EB74
:1001600004040ABF10F8013BA4EB8314A4EB03249E
:1001700005F1010314F8016B5B1E01F8016BF9D561
:10018000914238BF10F8013BD1D3704700230024BF
:1001900000250026103A28BF78C1FBD8520728BF97
:1001A00030C148BF0B6070476E2900F03B81702959
:1001B00000F07D82662902F09785652902F094851A
:1001C000672902F09185612902F0908503681B0A76
:1001D00028BF41F08001692900F0E880642900F01F
:1001E000E580752900F0E2806F2900F00A82782905
:1001F00000F04982E92900F0A581E42900F0A281FC
:10020000F52900F09F81EF2900F00782F82900F01E
:1002100048820368DB0928BF41F08001632900F0B0
:100220004B87732900F05087E32900F05B87F3299F
:1002300000F06087002070471FB500F0ADFF04009C
:100240000020002102F0E8FB401C6060002000213B
:1002500002F0CCFBE0601FBD10B510BD00F06EFFDA
:100260001146FFF7E9FF02F075F901F04BF803B40E
:10027000FFF7F2FF03BC01F093F800000948804744
:1002800009480047FEE7FEE7FEE7FEE7FEE7FEE778
:10029000FEE7FEE7FEE7FEE704480549054A064B90
:1002A00070470000891F0008ED00000808110020B9
:1002B0000817002008130020081300201CB50C4666
:1002C000064B7B4469460090204600F0C4F8044683
:1002D0000020694600F0D2F820461CBDB70100009E
:1002E00070477047704770B5044685690068C1065D
:1002F00001D5302600E02026C00707D070BDD4E924
:10030000012130469047206A401C20626D1EF6D5C0
:1003100070BD70B5044685690078C00707D170BD0F
:10032000D4E9012120209047206A401C20626D1EE4
:10033000F6D570BD09684A0501D540B27047C905B8
:10034000FCD500B2704709684A0501D5C0B27047B4
:10035000C905FCD580B2704770B50C460546012A28
:1003600005D02878800600D5EA69002302E0012341
:1003700005E05B1C934202D2E05C0028F9D1A86939
:10038000E618C01AA861286A184428622846FFF7B0
:10039000AAFF04E0D5E9012114F8010B9047B4420B
:1003A000F8D32846FFF7B5FF70BD00002DE9F041F6
:1003B0000646002410687529314616A510D0FFF7AF
:1003C000B9FF002802DA404213A507E031688A0726
:1003D00001D512A502E0490704D511A5012401E0C9
:1003E000FFF7B1FF00210A2206F1240709E0B0FB64
:1003F000F2FCB0FBF2F302FB1C00303078541846DC
:10040000491C0028F3D123462A463046BDE8F04176
:1004100000F061BA000000002D0000002B00000079
:100420002000000011680268006A530501D50870B9
:100430000AE0D30501D5088006E0130603D5C217EC
:10044000C1E9000200E008600120704701694A1C10
:1004500002610878704700B58FB0CDE90131002105
:10046000059105497944CDE903101146684600F02D
:1004700029F90FB000BD0000E5FFFFFF0A6802F890
:10048000010B0A60704700002DE9FF5F15468A46A0
:100490000446DFF8AC80F8440027D8E900103E4657
:1004A000CDE9001010E03AF816106A4602A800F0F4
:1004B00025FE411C07D02178890603D5E269391849
:1004C00091420DD80744761C2078800602D5E06959
:1004D000B84205DDAE42E6DB3AF816000028E2D16C
:1004E000A069C01BA0612046FFF7FDFED8E90010FF
:1004F000CDE90010002017E03AF818106A4602A86B
:1005000000F0FCFDB0F1FF3F81460BD000250DF15E
:10051000080B05E0D4E901211BF8050090476D1C8C
:100520004D45F7D308F10100B0428046E4DB206A74
:10053000384420622046FFF7ECFEBDE8FF9F000034
:10054000822800002DE9F0418046D21D22F00702EA
:100550000025D2E90002F52915A614D0011E72F17A
:10056000000106DA0023D0EB030063EB020211A6C0
:1005700008E0D8F800108B0701D50FA602E0490764
:1005800001D50EA601251146002408F1240704E038
:1005900000F05CF930323A55641C50EA0102F7D1A0
:1005A0002B46324621464046BDE8F04100F093B963
:1005B000000000002D0000002B00000020000000C3
:1005C00030B4002100F1240408E002F00705D2084D
:1005D000303542EA4372DB086554491C52EA030590
:1005E000F3D10468002310A2250707D5A40600D480
:1005F00021B1C46901230DA2641EC46130BC00F0A6
:100600006AB910B5044621461068FFF79CFE024601
:100610002046BDE810400023D2E7D21D22F007019A
:10062000D1E90023CCE7000000000000300000000A
:10063000F0B40D460188090502D5214C7C4402E046
:100640001F4C7C440E34002100F1240608E002F027
:100650000F071209E75D42EA03721B097754491C30
:1006600052EA0307F3D102780023120704D5702D54
:1006700006D009B1022311342246F0BC00F02BB998
:1006800001231034F8E770B504460D462146106882
:10069000FFF759FE024629462046BDE87040002378
:1006A000C6E7D21D22F00703D3E90023C0E70368A1
:1006B000126843F0200303600823C3610023B7E7F7
:1006C000E42600002DE9F05F894604464FF0000A59
:1006D000DFF874B1FB44C0F820A02046E1688847E9
:1006E000002874D0252806D0D4E901219047206A3B
:1006F000401C2062F1E700265F462046E1688847FB
:100700002028054607DB312D05D2781910F8200C7A
:1007100008B10643F1E7B00701D526F00406C4F896
:100720001CA00027C4F818A02A2D09D0284601F0E3
:10073000C0FE38B304EB8708303DC8F8185019E004
:1007400059F8041B204604EB87029161E168884751
:10075000012F054618D1E069002820DA26F020068E
:100760001DE0D8F8180000EB800005EB40003038A1
:10077000C8F818002046E1688847054601F099FE50
:100780000028EED1012F0AD02E2D08D12046E16895
:1007900088477F1C0546022F46F02006C4DBA0696F
:1007A000002803DA404246F00106A061F00701D0BC
:1007B00026F010066C2D0BD0682D09D04C2D39D0A9
:1007C0006A2D35D0742D35D07A2D33D016E038E02F
:1007D000E1682F4620468847B842054609D16C2F6C
:1007E00026D04FF48060E1680643204688470546DE
:1007F00004E06C2F1AD04FF4807006430DB3A5F1BE
:100800004100192802D8203546F400664A46294698
:10081000204626604E46FFF7C7FC80B101280BD06A
:10082000F61D26F0070000F1080956E74020E4E72E
:100830008020D8E70020D6E706F104094DE72846D6
:1008400052E7206ABDE8F09F7426000030B5B0F191
:100850000A024FEA900E71F100034EEA817EB0EB7E
:100860000E0061EB91014FEA101E4EEA017E10EB83
:100870000E0041EB11114FEA102E4EEA016E10EB03
:100880000E0041EB11214FEA104E4EEA014E10EBE3
:100890000E0041EB1141401841F100014FEAD00038
:1008A00040EA41704FEAD10110EB80054FEA810424
:1008B00044EA907444EB01046D1944EB0404521BA8
:1008C000A3414FF0000348BF0A3200D530BD401CA1
:1008D00041F1000130BD2DE9F0470D4699469246A1
:1008E000044600F124080168880604D5E06921F077
:1008F0001001216000E00120A84201DD471B00E05B
:100900000027A1697A1902EB0900081AA061207872
:10091000C00602D42046FFF7E6FC002608E0D4E932
:1009200001211AF806009047206A401C761C2062BC
:100930004E45F4DB2078C0060AD52046FFF7D3FCED
:1009400006E0D4E9012130209047206A401C206253
:10095000381EA7F10107F4DC07E0D4E9012118F8FB
:1009600005009047206A401C2062281EA5F1010561
:10097000F3DC2046FFF7CDFC2078000602D50220EC
:10098000BDE8F0870120FBE770472DE9FF4F0C46DB
:100990001E464FF0FF378BB0D2E90001DDF86080D2
:1009A0000A908A46C1F30A5505B93D46002108461A
:1009B0004FF00000BAF1000F00F4400005DA00EB40
:1009C00080004FF4400101EA50004FEA9059B9F11C
:1009D000010F00DDB9460A9850EA4A000ED044F6ED
:1009E0001050A5F2FF3545432F14B8F1000F1ED06B
:1009F0007542291E1EDDC9F100021CE0B8F1010F8D
:100A00004FF0000001D0302103E0F24305E0215413
:100A1000401CB042FBDB30460022002121540B99E0
:100A2000C1F80880C1E900200FB0BDE8F08FBD1B00
:100A30006D1CDEE74A4600DA694206A800F0F0FBCA
:100A400006AB93E8070003AB83E8070050460A991A
:100A500000F0ADFC8DE80700A0F500501F380090B5
:100A60000398002D0ADD42F21F014A460844002384
:100A700003A90390684600F016FF09E0A0F50050B6
:100A80004A461F38002303A90390684600F020FF60
:100A90008DE807000004000C03D04FF0FF30410840
:100AA00000E01046B8F1000F03D000220092154676
:100AB0001EE0751E05D4FFF7C9FE303262556D1E6B
:100AC000F9D5B3460122084302D000227F1C04E07E
:100AD0002078302801D100227F1E002A099784D077
:100AE0001DE0112D07DAFFF7B1FE303262556D1CA3
:100AF00050EA0102F5D1084302D00098C8B10EE0D7
:100B00000021681E05E0235C625C63542254401E91
:100B1000491C8142F7DBAB46A81B401E0990002010
:100B200004F80B000B98099AC0F80880C0E9002B64
:100B30007AE711264FF0000857E72DE9F04F884675
:100B40000446D21D22F0070191B0D1E90001CDE9A0
:100B50000A0101F09AFC02460B98C00F01D02D202B
:100B600007E02068810701D52B2002E0202101EA5F
:100B7000C000032A099001D0072A05DB034641463D
:100B8000204600F00DFB0BE12078800601D5E069DE
:100B900000E00620B8F1650F814606D0B8F1660F77
:100BA00018D0B8F1670F70D131E00020B9F1110F02
:100BB000009001DB112301E009F101030AAA01A958
:100BC0000CA8FFF7E2FEDDE90C70002609F1010533
:100BD000834647E001204B4600904FF000470AAAA9
:100BE00001A90CA8FFF7D1FEDDE90DB00C995D4617
:100BF000002610B909F101000D18B9EB050003D466
:100C0000C0F1FF3609F10105A5EB09002BE0B9F1B0
:100C1000010F01DA4FF001090020B9F1110F009026
:100C2000484601DD112300E003460AAA01A90CA8E9
:100C3000FFF7ABFEDDE90C704D46002683462078B9
:100C400000070AD4AB4500DA5D4601A8012D04DD9A
:100C5000411911F8011C302907D04F4502DA17F16C
:100C6000040F04DA012082460FE06D1EEEE7002F2C
:100C700002DCED1B3E4403E0781CA84200DD7D1C35
:100C8000B81B00F1010A4FF000472078000703D499
:100C9000AA4501DB4FF0FF3A0021B7F1004F0DF1FB
:100CA00043088DF8431024D002202B23002F01DAB3
:100CB0007F422D230A21021EA0F1010000DC5FB15A
:100CC00097FBF1FC97FBF1F201FB1C7C17460CF142
:100CD000300C08F801CDEEE7A8F10100037021887F
:100CE000090501D5452100E06521A0F1010800F8C2
:100CF000011C09980FA9A1EB0807FF1D00B10120F5
:100D0000411901EBEA70A1693844081A401EA0613C
:100D10002078C00602D42046FFF7E5FA099828B1EA
:100D2000D4E901219047206A401C20622078C00647
:100D300022D52046FFF7D7FA1EE0002E04DBB3458C
:100D400002DD01A8805D00E03020D4E90121904758
:100D5000206A401C2062761CAAF101005FEA000AAA
:100D60000AD100F019FAC0680168405CD4E9012199
:100D70009047206A401C2062281EA5F10105DCDC9A
:100D800007E0D4E9012118F8010B9047206A401CC4
:100D90002062381EA7F10107F3DC2046FFF7B9FAFD
:100DA000032011B041E600002DE9F04F04460D4646
:100DB000D21D22F0070089B0D0E900974846394695
:100DC00001F063FB0246F80F01D02D2307E02068F5
:100DD000810701D52B2302E0202101EAC0038DF811
:100DE00020300BB1012000E00020032A824601D010
:100DF000072A04DB2946204600F0D2F93FE120789B
:100E0000800601D40D2500E0E569C7F30A560D2DD3
:100E100049DA00214FEA175B08464FF00000002F27
:100E200000F4400007DA00EB80004FF4400100EBD3
:100E3000D07001EA60008115012901DD4FF0FF311A
:100E400000224FEA850CBCF1180F06D31346ACF113
:100E500018004FF08052C24003E04FF4801323FA91
:100E60000CF30CF10C0CBCF1200F04D3ACF1200CF2
:100E700009FA0CF001E007FA0CF000294FF00048E5
:100E800001DD18B90FE00ED140450CD319EB020972
:100E90005F4121B9404502D19F4329EA0209BBEBDA
:100EA000175F00D0761C2088000502D57B48784467
:100EB00002E07A487844193808AA302302F80A3048
:100EC000037C0AF10101002E0AF1020A53546A461A
:100ED00002DC4FF0300101E04FF031014FF001082A
:100EE0008DF8001002D0A6F2FF3603E059EA470160
:100EF00000D06B4E002D02DC2178090704D54FF09D
:100F000002082E218DF80110C44600210BE0C7F322
:100F100003433F01C35C491C6D1E02F808300529DC
:100F200008F1010801DA002DF1DC00210CE000EBF2
:100F30001973491C1B786D1E082902F808304FEA06
:100F4000091908F1010801DA002DF0DC21688B068F
:100F500002D516E0A8F10108E04505DD02EB080323
:100F600013F8013C302BF5D0B8F1000F09DD02EB8E
:100F7000080313F8013C2E2B03D1090701D4A8F173
:100F80000108002D05DD3E2102F808106D1E08F154
:100F90000108407C002E02F8080008F1010804DA7C
:100FA0002D20764202F8080002E02B2002F808000B
:100FB0000A214FF47A70864208F101080BDB96FB98
:100FC000F0F3303302F8083096FBF0F308F1010833
:100FD00000FB136601E0642E0CDB642096FBF0F34B
:100FE000303302F8083096FBF0F308F1010800FBFB
:100FF000136601E00A2E06DB96FBF1F0303002F8B2
:10100000080008F1010896FBF1F001FB1060303098
:1010100002F80800A16908F1010808EB050202EBDB
:101020000A00081AA0612078C00602D42046FFF703
:101030005AF9216A08AE01EB0A00206204E0D4E903
:10104000012116F8010B9047BAF1010AF7D2207876
:10105000C00602D52046FFF746F96E4609E016F8AD
:10106000010B3E280FD0D4E901219047206A401C93
:101070002062B8F10108F2D22046FFF74AF909B020
:101080000320BDE8F08F206A2844206203E0D4E901
:101090000121302090476D1EEBD3F8E7BE1E000003
:1010A00002FCFFFF10B5436913B1AFF3008001E00C
:1010B000FFF752F9012010BD127800F124010A70E7
:1010C00000224A700122EDE711684FF0FF32E9E794
:1010D00010B5436913B1AFF3008001E0FFF7D4F915
:1010E000012010BD128800F1240182840022C284F4
:1010F0000122EDE711684FF0FF32E9E770B51646BF
:101100000C46054600F040F8036893F801010128F9
:1011100006D0FF2C0FD8185D68B101202C7070BD6F
:10112000D3F807013246214603F207130344284649
:10113000BDE8704018474FF0FF3070BD754600F0B5
:10114000EBF8AE4605006946534620F00700854699
:1011500018B020B5FFF7A0F8BDE820404FF000061A
:101160004FF000074FF000084FF0000B21F007018F
:10117000AC46ACE8C009ACE8C009ACE8C009ACE8D2
:10118000C0098D467047000010B500F005F8001D3D
:1011900010BD00BF8518000000487047C81000202F
:1011A0002DE9F0411F46044603260168072A01F491
:1011B000006004DB08B116A505E016A503E008B140
:1011C00015A500E015A521F010002060A069C01E43
:1011D000A0610FB1401EA0612046FFF784F84FB117
:1011E000D4E9012138469047206A401C2062C01C87
:1011F000206206E0206AFAE7D4E9012115F8010B24
:101200009047761EF8D22046FFF783F8BDE8F081BC
:101210004E414E006E616E00494E4600696E66009A
:101220002DE9F047814616468AB0354878440DC806
:101230008DE80D0032487844801C03AC0DC884E86A
:101240000D0041F69B300844372190FBF1F290FBF2
:10125000F1F5A5F1800501FB12041B3C02D56442A7
:10126000012000E00020DFF898A080460027FA4423
:10127000AAF1BE0A0EE0E0070AD03246684607EB44
:10128000470101230AEB810100F022FB8DE80700F2
:1012900064107F1C002CEED1194F7F44AE3F19E043
:1012A000E80715D007EB04100DF1180A90E80E00BE
:1012B0008AE80E00C068F04201D1981908903246C1
:1012C000012306A903A800F003FB03AB83E8070092
:1012D0006D10641C002DE3D14FF0010332466946C6
:1012E000B8F1000F03A802D000F0DDFA01E000F031
:1012F000EFFAC9E90001C9F808200AB0BDE8F08793
:10130000D01B000010B50446AFF300802046BDE8B6
:101310001040FEF7ACBF000000487047A810002046
:101320004FF0013C50F8042B51F8043B9A4221D174
:10133000A2EB0C03934313EACC1317D150F8042B00
:1013400051F8043B9A4215D1A2EB0C03934313EAE4
:10135000CC130BD150F8042B51F8043B9A4209D11D
:10136000A2EB0C03934313EACC13DBD04FF0000045
:10137000704700BFD01A01BAB1FA81F101F018012B
:1013800022FA01F0CB40C1F12001DBB2C0B2C01A99
:101390002CFA01F3D11A914311EAC311E6D1704737
:1013A00001491820ABBEFEE72600020070475FEA45
:1013B000400C08BF91F0000F4FEA8C234FEAC12286
:1013C00043EA51514FEA1C5018BF00F5F0404FEA74
:1013D000300018BF41F000415FEA6C5C00F02980EA
:1013E000BCF1FF3F08BF40F080407047130C06BFC0
:1013F00012044FF0100C4FF0000C130E04BF120239
:101400000CF1080C130F04BF12010CF1040C930F24
:1014100004BF92000CF1020CD30F04BF52000CF178
:10142000010C11464FF00002A0F11F00A0EB0C00D0
:10143000704711F0004F08BF704731F000413FF492
:10144000D5AF0B0C06BF09044FF0100C4FF0000C89
:101450000B0E04BF09020CF1080C0B0F04BF0901AD
:101460000CF1040C8B0F04BF89000CF1020CCB0FA4
:1014700004BF49000CF1010CCCF12003A0EB0C00DF
:1014800022FA03F302FA0CF241EA030100F101002F
:10149000704720F07F4C80EA030023F07F47ACEBDD
:1014A000070303F57C5300F0004003F1FF032DE92F
:1014B00080494FEA154B09B44FEA144325EA0B4E15
:1014C00024EA03480FF2042606EB132749083E7866
:1014D0005FEA320203FB0667C7F5000707FB06F663
:1014E0004FEA54374FEAD64606F1020607FB066C70
:1014F000CCF1005C4FEA1C472CEA074C07FB06F4D2
:101500000CFB06F504EB15464FEA961634BF002097
:101510004FF000404FEAD13706FB07FC4FEA1C4C66
:101520000CFB0BF7D21B03FB0CF761EB07010CFB69
:101530000EF7B0EB074072EB17420CFB08F734BF15
:10154000A2EB0742B2EB074261EB17414FEA0C44B2
:101550004FEA910706FB07FC4FEA1C4C0CFB0BF70C
:10156000B0EBC74072EB573203FB0CF734BFA2EB72
:10157000C742B2EBC74261EB57310CFB0EF7B0EB41
:10158000C70072EB57720CFB08F734BFA2EBC7021F
:10159000B2EBC70261EB5771039F4FEA816141EAE9
:1015A000921104EBCC044FEAD1374FEA826206FB7A
:1015B00007FC42EA90124FEA80604FEA1C4C0CFB99
:1015C0000BF7D21B03FB0CF761EB07010CFB0EF7CB
:1015D000B0EB074072EB17420CFB08F734BFA2EBED
:1015E0000742B2EB074261EB17414FEA8C554FEAD5
:1015F000910704EB9C2406FB07FC4FEA1C4C0CFBF8
:101600000BF7B0EBC74072EB573203FB0CF734BF5C
:10161000A2EBC742B2EBC74261EB57310CFB0EF7AE
:10162000B0EBC70072EB57720CFB08F734BFA2EBAC
:10163000C702B2EBC70261EB577115EB4C254FEABD
:10164000816141EA92114FEA82624FEAD13742EA60
:10165000901206FB07FC44F100044FEA80604FEA59
:101660001C4C0CFB0BF7D21B03FB0CF761EB0701C7
:101670000CFB0EF7B0EB074072EB17420CFB08F7C0
:1016800034BFA2EB0742B2EB074261EB174115EB07
:101690001C154FEA813141EA92414FEA823242EA17
:1016A00090424FEA80304FEA0C7644F1000448EA59
:1016B00003434EEA0B484FF0000EB2EB080C71EBFF
:1016C000030724BF624639464EEB0E0E4FF0000B67
:1016D0000018524149414BEB0B0BB2EB080C71EB7C
:1016E00003077BF1000B24BF624639464EEB0E0E1A
:1016F0004FF0000B0018524149414BEB0B0BB2EB82
:10170000080C71EB03077BF1000B24BF62463946DE
:101710004EEB0E0E51EA020718BF46F0010616EB1B
:101720000E7655F1000254F1000103D5BDE88901A0
:10173000BDE80088BDE88901BDE80048B6195241FE
:1017400041EB0101A3F10103704780807F7E7D7C26
:101750007B7A7978777676757473727171706F6E43
:101760006E6D6C6C6B6A6A696868676666656464EE
:10177000636362616160605F5F5E5E5D5D5C5C5B78
:101780005B5A5A59595858575756565555555454E7
:10179000535352525251515050504F4F4F4E4E4D45
:1017A0004D4D4C4C4C4B4B4B4A4A4A494949484891
:1017B00048474747474646464545454444444443D1
:1017C00043434342424242414141002B9C4630D474
:1017D00077002BD01CB54FEA370703B44FF0100049
:1017E0004FF01001BAF1000F06D0BCF1000FDCBFC2
:1017F00040F0080040F008014FF000000FBCBDE8C9
:1018000010400BF1010BBBF1010F08BF5FEA170796
:1018100022BF12F1010211F101014FF0004143F129
:10182000000300F0004043EA00007047F9D3570876
:10183000D0E746EA064613F1400F4FEA16461FDD91
:1018400013F1200FDFBF16430A46002120335B420D
:10185000BED0C3F1200746EA064602FA07F74FEA70
:10186000164646EA0706C3F1200722FA03F201FAF8
:1018700007F721FA03F14FF0000342EA0702A7E756
:1018800046EA020646EA06464FEA164646EA0106D8
:10189000BCBF46EA0646360C4FF000034FF000028C
:1018A0004FF0000194E72DE9804C9A46934670B4BE
:1018B00091E8380007C831EA400C48BF34EA430CCD
:1018C00003D5FFF7E6FDFFF780FFF0BCBDE8008C15
:1018D0002DE9804C9A46934670B491E8380007C8C9
:1018E00010F0804F08BF13F0804F03D100F005F8CF
:1018F000FFF76BFFF0BCBDE8008C20F07F4780EA6B
:10190000030023F07F4C07EB0C03A3F57C5300F09E
:101910000040A3F1FE0392F0000F00F0B38095F0B9
:10192000000F00F077802DE901494FEA11404FEA9E
:10193000144621EA004800FB06FC24EA064708FB9F
:1019400006F607FB08F800FB07F718EB06484CEB18
:10195000164C4FEA124B18EB07484FEA15464CEB72
:10196000174022EA0B4E0BFB06FC25EA06470EFB4E
:1019700006F607FB0EFE0BFB07F71EEB064E4CEBC5
:10198000164C4FF000061EEB074E4CEB174B18EBB6
:101990000B0840F1000018EB0E0B58EB000840F16B
:1019A00000008F1A4FF000013CBFC943661B14BFF3
:1019B000B5EB040C00213CBFC943F61B4FEA1744AA
:1019C0004EEA8E0E27EA04454FEA1C4704FB0762E5
:1019D0002CEA074C05FB07F70CFB05F604FB0CFC97
:1019E00016EB074642EB174216EB0C4642EB1C4245
:1019F0001BEB060658EB0202414146EA9E0601D562
:101A0000BDE80189B619524141EB0101A3F101037F
:101A1000BDE801894FEA14454FEA114724EA05461B
:101A200021EA074C05FB07F406FB07F70CFB06F160
:101A300005FB0CFC11EB074144EB17444FEA12473E
:101A400011EB0C4144EB1C4422EA074C05FB07F266
:101A500006FB07F70CFB06F605FB0CFC16EB07462E
:101A600042EB174216EB0C4642EB1C456A1854F148
:101A7000000148BF7047B619524141EB0101A3F183
:101A80000103704795F0000F37D04FEA11424FEA3B
:101A9000144721EA024624EA074C02FB07F106FB41
:101AA00007F70CFB06F402FB0CFC14EB074441EBBC
:101AB00017414FEA154714EB0C4441EB1C4125EA52
:101AC000074C02FB07F506FB07F70CFB06F602FBCB
:101AD0000CFC16EB074645EB174516EB0C4645EBA1
:101AE0001C42121951F1000148BF7047B61952410A
:101AF00041EB0101A3F1010370474FEA14454FEA9E
:101B0000114724EA054621EA074C05FB07F106FBCD
:101B100007F70CFB06F24FF0000605FB0CFC12EB7E
:101B2000074241EB174112EB0C4251EB1C4148BFFD
:101B30007047921841EB0101A3F1010370472DE9B1
:101B4000F041024600250026002000230024002743
:101B500091F803C00CF00F0591F803C00CF0100CC5
:101B6000BCF1000F03D091F802C04CEA050591F8D2
:101B700000C0BCF1000F31D0146800202BE04FF002
:101B8000010C0CFA00F3B1F800C00CEA03069E4207
:101B900020D183004FF00F0C0CFA03F7BC4305FA79
:101BA00003FC4CEA040491F803C0BCF1280F06D1F1
:101BB0004FF0010C0CFA00FCC2F814C00AE091F8D6
:101BC00003C0BCF1480F05D14FF0010C0CFA00FC2A
:101BD000C2F810C0401C0828D1D31460B1F800C06E
:101BE000BCF1FF0F34DD546800202EE000F1080C3A
:101BF0004FF0010808FA0CF3B1F800C00CEA030634
:101C00009E4221D183004FF00F0C0CFA03F7BC4326
:101C100005FA03FC4CEA040491F803C0BCF1280F58
:101C200005D100F1080C08FA0CF8C2F8148091F8FC
:101C300003C0BCF1480F07D100F1080C4FF00108B8
:101C400008FA0CF8C2F81080401C0828CED3546063
:101C5000BDE8F081F0B50A460023002400210025EC
:101C600000F00046B6F1004F02D11D4EF16901E0CF
:101C70001B4E7168C0F3034583B200F44016B6F5FD
:101C8000401F08D121F07061154E766826F070660D
:101C9000134F7E6012E000F48016B6F5801F06D167
:101CA000032606FA05F4A14341F0706106E0460DF3
:101CB000360103FA06F6B14341F0706122B1460DD8
:101CC000360103FA06F6314300F00046B6F1004F44
:101CD00002D1034EF16101E0014E7160F0BD0000E0
:101CE000000001400246002093680B400BB1012028
:101CF00000E000207047000070B5002100230F2293
:101D0000C47804B3154C246804F4E064C4F5E064BA
:101D1000210AC1F10403CA40447804FA03F184782B
:101D20001440214309010E4C0678A155047804F0B3
:101D30001F050124AC4005786D11AD0005F1E025CB
:101D4000C5F8004109E0047804F01F050124AC4007
:101D5000044D0678761145F8264070BD0CED00E084
:101D600000E400E080E100E0024A0A400243024B46
:101D70001A60704780FFFF1F08ED00E029B1064A96
:101D8000D2690243044BDA6104E0034AD269824318
:101D9000014BDA61704700000010024029B1064A89
:101DA00092690243044B9A6104E0034A92698243B8
:101DB000014B9A61704700000010024030B50021CD
:101DC0000022002400232D4D6D6805F00C0121B187
:101DD000042905D0082923D105E0294D056022E01A
:101DE000274D05601FE0254D6D6805F47012234DE9
:101DF0006D6805F48034022505EB92421CB9214D33
:101E0000554305600BE01D4D6D6805F400351DB1AF
:101E10001C4D5543056002E0194D5543056002E035
:101E2000174D056000BF00BF144D6D6805F0F0014F
:101E30000909154D6B5C0568DD4045600F4D6D6807
:101E400005F4E061090A104D6B5C4568DD40856072
:101E50000A4D6D6805F46051C90A0B4D6B5C45680D
:101E6000DD40C560054D6D6805F44041890B074DA7
:101E70006B5CC568B5FBF3F5056130BD0010024031
:101E800000127A0000093D00000000201000002030
:101E900010B500F001F810BD0CB5002001900090C5
:101EA0003348006840F480303149086000BF304852
:101EB000006800F4003000900198401C01900098E8
:101EC00018B90198B0F5A06FF1D12948006800F465
:101ED000003010B10120009001E000200090009837
:101EE000012843D12348006840F0100021490860D0
:101EF0000846006820F0030008600846006840F0CB
:101F0000020008601A48406819494860084640685D
:101F100048600846406840F4806048600846406871
:101F200020F47C1048600846406840F4E81048609F
:101F30000846006840F08070086000BF0C480068E8
:101F400000F000700028F9D00948406820F0030034
:101F5000074948600846406840F00200486000BFFA
:101F60000348406800F00C000828F9D10CBD0000BF
:101F7000001002400020024002480068401C014955
:101F8000086070472800002010B51348006840F032
:101F900001001149086008464068104908400E4990
:101FA0004860084600680E4908400B49086008462A
:101FB000006820F4802008600846406820F4FE0095
:101FC00048604FF41F008860FFF762FF4FF0006029
:101FD0000449086010BD0000001002400000FFF836
:101FE000FFFFF6FE08ED00E021B1028842F080021A
:101FF000028004E002884FF67F731A400280704727
:1020000021B1028842F00102028004E002884FF60A
:10201000FE731A400280704731B1B0F8442042F498
:102020000042A0F8442005E0B0F84420C2F30E02BC
:10203000A0F844207047000070B50024002200235F
:10204000058C4FF6FE7635400584028C8388048B20
:102050004FF68F752C40B51E2C400D882C43751EF5
:102060002A400D892A434D882A43144DA8420BD09B
:10207000134DA84208D0134DA84205D0124DA842D6
:1020800002D0124DA84213D14FF6F7752A404D8960
:102090002A434FF6FB752A408D882A434FF6FF6589
:1020A0002B404FF6FF552B408D892B43CD892B4379
:1020B00083800483CD888586028470BD002C014016
:1020C000003401400040014000440140004801400C
:1020D0000A460021018B4FF6F77319401143018323
:1020E0007047000070B5002200230024058C4EF6D6
:1020F000FF7635400584038C8488828B48F6FF7513
:102100002A404FF6FF452A400D884FF6FF7606EA33
:1021100005252A434DF6FF752B400D8906EA053546
:102120002B434D8806EA05352B430B4DA84202D0C0
:102130000A4DA84208D14BF6FF752C408D894FF609
:10214000FF7606EA85152C4384808283CD88A0F82B
:102150004050038470BD0000002C01400034014059
:102160000A460021818B4FF2FF7319404FF6FF732F
:1021700003EA022319438183704781867047A0F8E0
:102180004010704781847047002202881D4B98429E
:102190000ED01D4B98420BD0B0F1804F08D01B4B96
:1021A000984205D01A4B984202D01A4B984204D15B
:1021B0004FF68F731A404B881A43174B984207D03B
:1021C000164B984204D04FF6FF431A40CB881A436F
:1021D00002808B8883850B8803850A4B98420BD03D
:1021E000094B984208D00E4B984205D00D4B9842AF
:1021F00002D00D4B984201D10B7A038601238382D2
:1022000070470000002C01400034014000040040F1
:1022100000080040000C0040001000400014004086
:10222000004001400044014000480140014908705D
:10223000704700006410002010B540F225510A4894
:1022400000F05EF878B10948007838B1064800F02F
:1022500013F9C4B2064801682046884740F2255168
:10226000014800F025F810BD003801405C00002056
:102270005400002010B540F225510A4800F040F803
:1022800078B10948407838B1064800F0F5F8C4B292
:10229000064841682046884740F22551014800F031
:1022A00007F810BD004800405C00002054000020EA
:1022B00010B50022002340F66A14A14200D100BFED
:1022C0000A1201249440A3B2DC43048010BD21B162
:1022D000828942F40052828104E082894DF6FF73C4
:1022E0001A408281704702460020B1F5007F00D17C
:1022F00000BF13880B400BB1012000E000207047A5
:1023000070B50246002400230025002040F66A161E
:10231000B14200D100BFC1F3421501F01F030126F5
:1023200006FA03F3012D02D19689334006E0022D0F
:1023300002D1168A334001E0968A33400C120126FE
:1023400006FA04F41688344013B10CB1012000E001
:10235000002070BDF0B503460024002600250020B3
:1023600040F66A17B94200D100BF1846C1F34214C3
:1023700001F01F06012707FA06F5012C01D10C30E8
:1023800004E0022C01D1103000E014301AB10768CB
:102390002F43076002E00768AF430760F0BD00000D
:1023A0002DE9F04786B005460E460024A24600BF40
:1023B000A1460027B08900B100BF2F462C8A4CF6F9
:1023C000FF700440F08804432C82AC894EF6F31071
:1023D0000440B08831890843718908430443AC81C3
:1023E000AC8A4FF6FF400440B0890443AC8201A898
:1023F000FFF7E4FC1F48874202D1DDF810A001E09E
:10240000DDF80CA0A88900F4004040B10AEBCA0036
:1024100000EB0A1031684900B0FBF1F807E00AEB65
:10242000CA0000EB0A1031688900B0FBF1F86420A3
:10243000B8FBF0F004012009642101FB1089A88990
:1024400000F4004040B1322000EBC900B0FBF1F0D5
:1024500000F00700044308E0322000EB091064217B
:10246000B0FBF1F000F00F0004432C8106B0BDE892
:10247000F08700000038014001468888C0F308005A
:102480007047C1F3080282807047490050EAC120BA
:1024900018BF04204A0D18BF40F0010040F2FF723F
:1024A000B2EB515F08BF40F00200012808BF0520D1
:1024B000704730380A2801D2012070470020704749
:1024C00008B501211020FFF769FC03208DF80200F8
:1024D00048208DF803004FF46040ADF800006946D5
:1024E0001548FFF72CFB002022E0144951F820107A
:1024F00000EB8002124B43F82210124931F8101001
:1025000000EB800203EB82029180012100EB80024C
:1025100003EB82029171002100EB800203EB820247
:10252000D17100EB800203EB82021172411CC8B230
:102530000328DADB08BD0000001001403000002055
:102540006C100020F02C0008014800687047000063
:102550002800002000F022F900F068F9FFF7B0FF32
:102560004FF4E17242F210718F2000F0B5F84FF491
:10257000E131012000F060F93749012000F0F2F963
:1025800069E0FFF7E1FF35490968884263D0FFF74A
:10259000DBFF32490860084600683221B0FBF1F2E7
:1025A00001FB1200002852D100F072F82C4908708B
:1025B0002C480078712811D12B48008840F21A412C
:1025C00088420BDA284800882849098808442649A7
:1025D000088008460188002000F06CF82148007847
:1025E000652810D120480088B0F5E17F0BDD1E483A
:1025F00000881E490988401A1B490880084601883E
:10260000002000F057F817480078202804D1164819
:102610000188002000F04EF811480078B8B914483D
:1026200000780F490978884211D00F48008800F0DF
:10263000FDFA07460F4900F037FA044600F008FAA1
:1026400005462A460B460CA1012000F09DF90448DE
:1026500000780749087094E72D22000860100020D8
:102660006510002064100020681000206A1000200F
:10267000661000200000C8424475747920637963B5
:102680006C653A2025302E326625250A00000000B0
:1026900010B5044604EB8402054B03EB82029188DB
:1026A00004EB840253F82200FFF71CFB10BD00006E
:1026B0006C10002070B504460D461CB9294605482B
:1026C000FFF75BFD012C03D129460248FFF757FDB8
:1026D00070BD0000002C014070B588B006460C4665
:1026E0001546012140F60500FFF758FB18208DF82C
:1026F0001F0003208DF81E004FF41060ADF81C0081
:1027000007A92448FFF71BFA0020ADF81200ADF826
:1027100016008DF81800ADF81060ADF8144004A94B
:102720001D48FFF731FD0020ADF80800ADF80A00A4
:102730006020ADF800000020ADF80C00ADF80E00F0
:102740000120ADF802000420ADF80400ADF80650F9
:1027500069461148FFF770FC01210F48FFF7B8FCEC
:1027600069460D48FFF7BEFC01210B48FFF7F8FC56
:1027700001210948FFF738FC01210748FFF740FC19
:1027800000210548FFF7FEFC01210348FFF744FC48
:1027900008B070BD00080140002C014038B5002091
:1027A0008DF801008DF8020001208DF80300FF2054
:1027B0008DF800006846FFF79FFA174800684FF44D
:1027C0007A72B0FBF2F1B1F1807F00D31DE021F00D
:1027D0007F40401E4FF0E022506150170F2200282A
:1027E00007DA13071D0E0D4B00F00F04241F1D55B3
:1027F00003E013071C0E0A4B1C5400BF00204FF0CF
:10280000E02290610720106100BF01200549087097
:1028100000200549086038BD1400002018ED00E0D4
:1028200000E400E02C0000202800002000200149E6
:10283000086070472800002030B585B004460D467A
:102840002E4951F82410094341F001000121FFF7FE
:10285000A5FA34B92A4951F824000121FFF79EFA5C
:1028600005E0274951F824000121FFF787FA1820D5
:102870008DF81300234830F81400ADF81000032041
:102880008DF81200204951F8240004A9FFF757F9E8
:1028900004208DF813001D4830F81400ADF8100026
:1028A0001B4951F8240004A9FFF749F901211948EF
:1028B000FFF7D0F900950020ADF80400ADF8060050
:1028C000ADF80800ADF80C000C20ADF80A00124974
:1028D00051F824006946FFF763FD0F4951F82400C1
:1028E000012240F22551FFF735FD0B4951F8240034
:1028F0000121FFF7ECFC05B030BD0000002D000801
:10290000082D0008102D000844000020142D000898
:102910004C000020100014003C00002038B5044694
:1029200000214FF00060FFF71FFA0C4810F8140068
:102930008DF8000001208DF801008DF802008DF85F
:1029400003006846FFF7D8F9054951F82400012231
:1029500040F22551FFF7FEFC38BD0000182D00089D
:102960003C00002070B504460D46054840F8245050
:102970000120044908552046FFF7D0FF70BD000034
:10298000540000205C0000200FB430B5C1B00546F3
:1029900046A840906846409A4599FDF78FFC002074
:1029A00040906C4604E014F8011B284600F008F83B
:1029B00020780028F7D141B030BC5DF814FB00004E
:1029C00070B504460D4600BF074951F82400402168
:1029D000FFF789FC0028F7D0034951F82400294665
:1029E000FFF74FFD70BD00003C00002010B500292E
:1029F0000AD00878002807D005487844FEF790FCF4
:102A0000002801D0002010BD0248784410BD00000D
:102A10003E0400003604000010B500290AD00878F2
:102A2000002807D005487844FEF77AFC002801D03A
:102A3000002010BD0248784410BD00002E040000A4
:102A4000260400000808A0F500114FEA3101704784
:102A500043004FEAD30C4FEA3C0C43401FBF4007F2
:102A60000CF1605113F0FE4F70471CF0006F03D162
:102A700000200CF0004170470CF0004343EA507016
:102A800010B540EACC0000F0E4F800BF000000926E
:102A90004FEA0001FFF7D6BF4FF000414FF00000B2
:102AA000A1F50021704700004FF47F0C1CEAD01202
:102AB0001EBF1CEAD11392EA0C0F93EA0C0F00F030
:102AC000858090EA010F48BF42F4807240F4000C08
:102AD00041F400002CF07F4120F07F4000B581429E
:102AE000A2EB03020FF2081CACEB504EC0F1000049
:102AF0009EF800E04FEA4E0E00FB0EFC38BF490086
:102B00004FEA2C1C02F5FA020CFB0EF34FEACE1E24
:102B10004FEA112C4FEAC1210EEB635E42EB2242D9
:102B20000EFB0CFC4FEA1C5300FB03114FEA112C67
:102B30004FEA01310EFB0CFC4FEADC4C00FB0C11A0
:102B4000C14228BF09184CEB03335DF804EB10EBCE
:102B5000410143EBC250B2F57C0F38BF704729D515
:102B600012F0F00F1CBF00F1C04000F000407047B1
:102B7000008182838485868788898B8C8D8E8F9156
:102B80009293959697999A9C9D9FA0A2A3A5A7A87A
:102B9000AAACAEB0B2B3B5B7B9BCBEC0C2C5C7C9A6
:102BA000CCCED1D4D7D9DCDFE2E6E9ECF0F3F7FA0A
:102BB000FE0000004FEA400C0CF1807CBCF17E4F1F
:102BC00028BF7047B0F1C04000F089B890EA010F0B
:102BD0000CEAD11348BF42F48072624538BF6345A6
:102BE00007D213F47F0F16D080EA010000F00040F6
:102BF000704710B500F02DF8097EFC3E00F005B8D6
:102C000080EA010000F00040704780EA010000F017
:102C1000004000F064B812F47F0F04BF0248704710
:102C200080EA010000F05BB80000C07FB0FA80F3DA
:102C300010FA03F2C3F19D030AD0D90501EB12206B
:102C4000530638BF704700F1010008BF20F00100B3
:102C500070470EF1020E2EF0030E5EF8044B244274
:102C600004D44FEA4102B2F17F4F11D84FEA40033A
:102C7000B3F17F4F0CD80ED14FEAD07CB2F17F4F29
:102C80000CEB4C0C0CF1020C08BF4CEBD17C04E0BB
:102C90004FF0080C01E04FEAD17C0CEB4C0324FA16
:102CA00003F404F00704B4F1040C06D20EEB840C18
:102CB000BDE810404CF0010C6047DFE80CF007085D
:102CC00002024FF00040A0F5800010BD084642000F
:102CD00018BFD2F1807288BF00F0004010BDFF2104
:102CE00041EAD050C0057047FDF727BFFEF75CB83A
:102CF00000200040008000000400000010000000E0
:102D0000040000001000000000400000000004006B
:102D10000002000400040008250027000000000055
:102D20000000000030313233343536373839414213
:102D3000434445464030580030313233343536371D
:102D400038396162636465664030780004000008C9
:102D500000000000000000020001000010303132CD
:102D600033343536373839616263646566787000AC
:102D700030313233343536373839414243444546B1
:102D80005850000002400000000000A000000000B9
:102D900005400000000000C8000000000C400000DA
:102DA0000000409C00000000194000000020BCBE54
:102DB0000000000034400000BFC91B8E000000046A
:102DC000B5400000504BCFD06607E2CF01000000B5
:102DD0006C4100003E8251AADFEEA73401000000E2
:102DE000D9420000DCB5A0E23A301F97FFFFFFFF99
:102DF000B4450000FD25A0C8E9A3C14FFFFFFFFFB8
:102E0000FF3F00000000008000000000FF3F0000C6
:102E10000000008000000000642F00080000002077
:102E20006C100000280100081C3600086C100020FF
:102E30009C0600008C0100081C00000043000000FC
:102E4000F8FFFFFF0C0000000E0000000F00000064
:102E50002E0000001001000043000000F8FFFFFFFB
:102E6000004040404040404040404141414141409D
:102E70004040404040404040404040404040404052
:102E800040050202020202020202020202020202E1
:102E900002202020202020202020200202020202E6
:102EA000020290909090909010101010101010103E
:102EB000101010101010101010101010020202024A
:102EC000020288888888888808080808080808088E
:102ED000080808080808080808080808020202028A
:102EE00040000000000000000000000000000000A2
:102EF00000000000000000000000000000000000D2
:102F000000000000000000000000000000000000C1
:102F100000000000000000000000000000000000B1
:102F200000000000000000000000000000000000A1
:102F30000000000000000000000000000000000091
:102F40000000000000000000000000000000000081
:102F50000000000000000000000000000000000071
:102F60000000000012000120050102030404500EBD
:102F7000060708090204060800A24A0400016118B5
:102F8000611070050010014004123804500648001A
:102F9000400008146108011B01500B7E81A581814E
:102FA000BD9981817E105009FFDBFFFFC3E7FFFF62
:102FB00010100500006CFE0170047C381073A338FB
:102FC0007C0F700A183C3CE7E7E718183C10127EAB
:102FD0003D8110412342185E32FF0123E7C3612186
:102FE0000A316180073C664242663C205007C39923
:102FF000BDBD99C32010071E0E1A3278CC0142784D
:103000008E133C6601133C1861419E10053F333F0F
:103010003001400470F0E06210057F637F6301506F
:103020000567E7E6C07D500718DB3CE73CDB303442
:103030000C80C0E0F0F8FEF8F0E0C08040700C02B8
:10304000060E1E3EFE3E1E0E0602BF600518181834
:103050007EB143006601110851602006DBDBDB7B9B
:103060001B01353F940D7CC660386CC6C66C380CAD
:10307000C67C562533D150A27E602101619F31016B
:103080008171111380040CFE0C0EA4080000306046
:10309000FE6030B49005C0C0C0FE208406286CFEDF
:1030A0006C286E80071038387C7CFE2115BD877C2B
:1030B00038BFD90015BF223C8D5520155DCA24218B
:1030C000126C5E3104454D640B7CC6C2C07C0606A2
:1030D00086C67C824409C2C60C183060C686A0141D
:1030E00007386C6C3876DCB04276BCB004303060A7
:1030F00070112C310153180CDD33180C018218E2C9
:10310000A006663CFF3C66A385EE91149131031145
:1031100000FED87550230206A055F011A02405C664
:10312000C6D6D6B2599C573878824D1003437CC618
:103130002F73C6FE106406063C060606DF10070C59
:103140001C3C6CCCFEB1561E5E158D92FC201338D3
:10315000601012C601511012FE4041F46160111B53
:103160009120210C127E60B30C78BA91F151106558
:103170002031CE15368E06C3033103653E311C2146
:10318000247170960CE031715006DEDEDEDCC0B0DA
:1031900026101122FE91454B1AFCF12A7CF56EFC9B
:1031A000700312C2E25FC0C2A1034C0400F86C12AB
:1031B00003576CF800B00A6662687868606266FE61
:1031C0001090046060F0404006DEC6C6663A4025B6
:1031D0001B316F51705E3C01036D40043A1E0E8D31
:1031E000F00312E66B1378787542E68033F06001E5
:1031F00071709006C6EEFEFED6508007C6E6F6FE5B
:10320000DECE10356C959031E08260A051207406BE
:10321000D6DE7C0C0E0021E476E6B0700560380C3A
:103220000640B0047E7E5AB0D2C660510E6E6C214C
:1032300005315D6006D6D6FEEE6C201E6C8E0363F3
:103240007C6CA04DCF0481502C04FEC6864F036ACF
:10325000C2804E3C2F036F303060051DC2047C04D9
:1032600070381CB0044E3C3F0364040C0C3CCE0D83
:1032700017EB054EFF6F03FD03067C04780C7CB052
:1032800003240500E060606E152579601B7CC6E4B0
:1032900069E0121C6A836CCC30395292FE202C05F6
:1032A00036323078920579D02F0076BF053404CCC1
:1032B0007C0CD3116084046C7666601D7B04AA3894
:1032C0000030060606000E06013E6614061130495F
:1032D000015590DA3830191317ECFE6182D6F85E8A
:1032E000DCB30581A09D700371207A7C0361A06D21
:1032F000D3038804DC7666C05DE4057DDF05240524
:10330000103030FC8F73361C7031DF9510590191ED
:10331000102901826C20A4046C3838A849336C044D
:103320007E060C53032ECC50055D40061E0E9B04FA
:103330002E703006BE0E30067D4006211C212497DB
:103340001870D29F76DC0A053DE203614F1DB1047F
:10335000328201811023D6AA028110A007868A8AB0
:10336000DAF2B2206005DEFAF6BA10CACC301D8A55
:1033700004B1101E385805B950894031A219A1C9AD
:1033800030CAC6402150B120BB6600201E181A0664
:10339000A1102180A1108EC6D104518F2DE1047D92
:1033A000E0041D58074DB1047D400429404C073608
:1033B000367ED8D86E50081A3EDD26FED266CE3D47
:1033C000C940CAC65041B08110B8043078CC102131
:1033D000D0B92096C6F01D10037EC6A1044500CFCB
:1033E000C600B0042D7107453E4DA0073C05386C62
:1033F000646003055EE6A0054D0D096A7E101C0899
:10340000F8CCCCF8C4CCDEA1034DD0052F0E1B5D4B
:10341000081D82084AD8202D1806A5B02D7807B5BA
:10342000601120A1D02110B1C0195B9D6003110E65
:103430007D71055DF005AC046C6C3E8F062D1008A7
:103440009E001B091D08071D1308AEC090033D44D4
:1034500007AEC03E092D01045DCE061C05E0626684
:103460006C0F031EDC1605823E10400566CE9A3FA7
:10347000233DBB083DC50871739006366CD86C3689
:103480004F110E4F6CD85B09C3114402C355AA02F9
:10349000C3DD770202141801D2F80E711042360112
:1034A00052F6086186B2FE10E13073F60630E10193
:1034B000550FC1207FF606CD0351709EFE170931CE
:1034C00090DDFA05C1B0B00418181F30EC041818CC
:1034D000FF2A06E130CD7404E300FF40D12ED61F51
:1034E00010B237C0BC0437303F620AC33F3020C33C
:1034F000F70090D004FF00F740B6372082FF9051CC
:1035000040713051DEC120E3363660E2FFE0D590F5
:10351000B63F60861F403D800BF61F20D23F40C261
:10352000FF90D530F618B07540D2FF01AE00470DC0
:103530001111D2F001D20F01C1377D1E065C05D8F2
:10354000D8D8DC90042D5C0D1FD8CCA5086ECC809B
:10355000082DEE07BD91032D000C4E6C000C2DA024
:10356000081D610A9DA0062D330E114F8FD8D880FB
:10357000066E6660074D820DAF76DCB0066F7E1872
:10358000C20D8D900B9EFE30073DAD0621715EEEA3
:10359000100A1D210C3E3E250981701D830D8DF101
:1035A0000A1303061053F37E6D2C06001C30606076
:1035B000E009DC04301C00010A9D2D0CAEFE330C2A
:1035C0005D5F0C6DF00E5D3F0B71105D6F0B612048
:1035D0000C04120E1B1B1204A5011E18920BCE1810
:1035E0008E077D91073D0F050D19AD0C61426DE011
:1035F0000F3E0F0F0B4005EC6C6C3CD0AE6C5704CB
:103600003D3C0FCC050C18327ED20F41010D18F352
:0C3610000F000800010100C2011E0000B4
:04000005080000ED02
:00000001FF
